:100000000C9495000C94BF000C94BF000C94BF009E
:100010000C94BF000C94BF000C94BF000C94BF0064
:100020000C94BF000C94BF000C94BF000C94BF0054
:100030000C94BF000C94BF000C94BF000C94BF0044
:100040000C94BF000C94BF000C94AB040C94BF0044
:100050000C94BF000C94BF000C94BF000C94BF0024
:100060000C94BF000C94BF000C94BF000C94BF0014
:100070000C94BF000C94BF000C947A050C941D04E2
:100080000C94DA040C94B5040C94BF000C94BF00DB
:100090000C94BF000C94BF000C94BF000C94BF00E4
:1000A0000C94BF000C94BF000C94A1040C94BF00EE
:1000B0000C94BF000C94BF000C94BF000C94BF00C4
:1000C0000C94BF000C94BF000C94BF000C94BF00B4
:1000D0000C94BF000C94BF000C94BF000C94BF00A4
:1000E0000C94BF000C94BF000C94BF000C94BF0094
:1000F0000C94BF000C94BF000C946F040C94450446
:100100000C94BF00F32DDB2D012EFC2DCD2DCD2D1C
:10011000E82DFF2DD42DD42DFC34E534DD341435F9
:10012000DD341435DD341435C86711241FBECFEF1C
:10013000CDBFDFE7DEBF19E4A0E0B0E4EAE1F0EE16
:1001400000E00BBF02C007900D92AA32B107D9F7A9
:1001500021E5AAE2B9E401C01D92A73AB207E1F78E
:1001600010E0C5E9D0E004C02197FE010E94876B32
:10017000C439D107C9F70E945F680C940B700C94C6
:100180000000FB01A485B585ED91FC9111970190CC
:10019000F081E02D682FCD01099590E080E0089571
:1001A000CF92DF92EF92FF926B017C0160E07BE1E6
:1001B00087EB90E0A70196010E94656B81EAC81663
:1001C00086E8D80681E0E806F10440F52B503109B5
:1001D00012161306F4F52F3F310519F014F02FEF26
:1001E00030E0E091FB49F091FC498681821789F06B
:1001F00093811382268380ECC81687E2D80689E0B3
:10020000E806F10448F1808182608083938381E075
:100210008583FF90EF90DF90CF90089581E8C81616
:100220008AE1D80686E0E806F10418F4275031097F
:10023000D2CF81E0C81685E3D8068CE0E806F10449
:1002400018F426503109C7CF27503109121613066A
:1002500044F221E030E0C5CF80818D7FD6CFFC0114
:10026000518D428D252F30E0842F90E0821B930B1F
:10027000541710F0CF96089501970895FC019789BF
:10028000808D981761F0A08DAE0FBF2FB11D5B96CA
:100290008C91908D9F5F9F73908F90E008958FEF6A
:1002A0009FEF0895FC019789808D981731F0808D1C
:1002B000E80FF11D838D90E008958FEF9FEF089573
:1002C000FC019789208D892F90E0805C9F4F821BD5
:1002D00091098F7399270895CF93DF93EC01E881FB
:1002E000F9810284F385E02D0995EC85FD858681F1
:1002F0008F738683EC85FD8585818F758583888DD9
:100300008F8B1E8ADF91CF910895CF93DF93FC01ED
:10031000918D828DC485D585981306C08D818F7D82
:100320008D83DF91CF910895A28DAE0FBF2FB11DA8
:10033000A55ABF4F9C91828D8F5F8F73828F80E40F
:100340008C83A485B58512969C93918D828D98138C
:10035000E8CF0484F585E02D85818F7D8583E1CF0D
:100360000FB607FE04C020911101222341F0DC01E9
:100370001C96ED91FC91248125FD0C948501089536
:100380000F931F93CF93DF93EC0181E08E8B998DB8
:100390008A8D981311C0EC85FD85848185FF0CC082
:1003A00080E48483EC85FD85628381E090E0DF91C9
:1003B000CF911F910F910895062F198D1F5F1F7305
:1003C0008A8D811304C0CE010E94B001F9CFE98D5E
:1003D000EC0FFD2FF11DE55AFF4F0083198FEC85BF
:1003E000FD85858180628583E0CFCF93DF93EC012B
:1003F0008E89882361F0EC85FD85858185FD03C0AC
:10040000848186FD04C0CE010E94B001F4CFDF914B
:10041000CF910895AF92BF92CF92DF92EF92FF9269
:100420000F931F93CF93DF936C017B018B01040F1C
:10043000151FEB015E01AE18BF08C017D10759F0B8
:100440006991D601ED91FC910190F081E02DC601FA
:100450000995892B79F7C501DF91CF911F910F91F4
:10046000FF90EF90DF90CF90BF90AF90089581E024
:100470000895FC018289838B8089818B8789808F95
:100480008589868B0484F585E02D8481886084834A
:100490000895FC01868584FF0DC0CF018D559E4FC8
:1004A0002789E08D2E1761F0E80FF92FF11D80816B
:1004B00090E00895CF0181569F4F2289E389F2CFC2
:1004C0008FEF9FEF0895FC018685DF0184FF13C045
:1004D00058969F012D553E4F8789908D891791F031
:1004E000290F311DF90180819F5F923808F090E05B
:1004F0009C9390E0089553969F0121563F4F828927
:100500009389ECCF8FEF9FEF0895FC01868584FFE0
:100510000FC02789808D30E02E573F4F281B3109AF
:10052000822F2238310510F08EE7820F90E0089577
:1005300022898389F0CFCF92DF92EF92FF920F93BF
:100540001F93CF93DF937C018A01EB016B01C40EF3
:10055000D51ECC15DD0551F06991D701ED91FC91C7
:100560000190F081E02DC7010995F3CFC801DF911B
:10057000CF911F910F91FF90EF90DF90CF90089552
:10058000FC018685DF0184FF15C055969F012F5D14
:100590003E4F858996898F5F823808F080E09817F2
:1005A00081F0EC91E20FF32FF11D60838C9381E0D9
:1005B00090E0089550969F01235E3F4F8089918976
:1005C000EACF90E080E00895DC01ED91FC91068493
:1005D000F785E02D23E030E00994CF93DF93CDB78A
:1005E000DEB72E97CDBFDEBF81EC90E089879A877A
:1005F0001B861C8682E08C8384E599E48D879E8728
:10060000AE01495E5F4F6D897E89CE0101960E94E1
:100610006A6D2E96CDBFDEBFDF91CF910895CF9347
:10062000DF93FC0101900020E9F73197AF01481BEF
:10063000590BBC0184E599E40E940A02EC0142E0F6
:1006400050E06BE976E484E599E40E940A028C0F9D
:100650009D1FDF91CF9108957F928F929F92AF92CD
:10066000BF92CF92DF92EF92FF920F931F93CF939F
:10067000DF93EC014A015B01722E8E89882339F0E9
:10068000E881F9810088F189E02DCE010995ED8896
:10069000F12C00E0811450E195065EE0A506B1045E
:1006A00028F0B694A7949794879402E01E8A1FB707
:1006B000F894CC84DD8460E078ED88EB95E0A501CA
:1006C00094010E94656BD60118962D933C9319975F
:1006D000EC85FD857782EC85FD858681897F806C40
:1006E000802B8683EC85FD8585818068858390914C
:1006F000E2058C89809589239701220F331FF90128
:10070000EE0DFF1DEC0FFD1F9189892B8093E205F3
:100710008785873328F590E0FC01EE56FA4B40813F
:100720004F3FF1F0FC01E55AFA4BE081B0E2EB9F5C
:10073000F0011124FC5F8C5D9A4BDC015C91B0E010
:10074000A0E05F3F29F0CF014096DC01A50FB11D6D
:100750009FB7F89442838C9188608C9345839FBFA8
:10076000E20EF31ECE0DDF1D8889873388F490E0FA
:10077000FC01EE56FA4B20812F3F51F0855A9A4BDF
:10078000DC01EC91B0E2EB9FF0011124FC5F2183CE
:100790001FBFDF91CF911F910F91FF90EF90DF90DE
:1007A000CF90BF90AF909F908F907F9008950F93C0
:1007B0001F93CF93DF93CDB7DEB7C250D440CDBFE8
:1007C000DEBF20E034E0CF5FDB4F28833983C150A8
:1007D000D4409E012F5F3B4F8E010F5F1F4FA8013A
:1007E0000E94C50D0097D9F09F938F9383EF95E4F6
:1007F0009F938F9384E599E49F938F930E94ED02DA
:100800000F900F900F900F900F900F90CE5FDB4FD7
:10081000CDBFDEBFDF91CF911F910F910895CF5FC4
:10082000DB4FE881F981C150D440E00FF11F108205
:100830001F930F9386E196E4DBCF1F920F920FB6C2
:100840000F9211248F939F93AF93BF938091504940
:1008500090915149A0915249B09153490196A11DDF
:10086000B11D8093504990935149A0935249B09340
:10087000534981E08093260BBF91AF919F918F9157
:100880000F900FBE0F901F9018951F920F920FB6EA
:100890000F9211240BB60F922F933F934F935F93B8
:1008A0006F937F938F939F93AF93BF93EF93FF9338
:1008B00084E599E40E948501FF91EF91BF91AF918A
:1008C0009F918F917F916F915F914F913F912F9168
:1008D0000F900BBE0F900FBE0F901F9018951F9298
:1008E0000F920FB60F9211240BB60F922F938F9386
:1008F0009F93EF93FF93E0916049F091614981816B
:1009000081FD1DC0908180916B498F5F8F73209115
:100910006C49821741F0E0916B49F0E0EC5AF64BDC
:10092000938F80936B49FF91EF919F918F912F91BE
:100930000F900BBE0F900FBE0F901F9018958081E7
:10094000F2CF1F920F920FB60F9211240F900FBE8D
:100950000F901F9018951F920F920FB60F921124AF
:100960000F900FBE0F901F9018951F920F920FB609
:100970000F9211248F9380914F498823A9F0809181
:100980004E498F5F8F7780934E4980914E491092E8
:10099000220880914F49815080934F498F910F9049
:1009A0000FBE0F901F901895809125088F7D809322
:1009B0002508F4CF1F920F920FB60F9211240BB699
:1009C0000F922F933F934F935F936F937F938F93E8
:1009D0009F93AF93BF93EF93FF93909120088091E3
:1009E0004D498F5F8F7780934D4980914D4980911C
:1009F0004C498F5F80934C492091004030910140D9
:100A00002130310509F45CC040F12230310541F458
:100A10009B3231F410924B491092004010920140E9
:100A200080914C498E3708F05FC080914604806801
:100A300080934604FF91EF91BF91AF919F918F9169
:100A40007F916F915F914F913F912F910F900BBECE
:100A50000F900FBE0F901F9018959A33D9F482E033
:100A600090E0809300409093014088E090914B4942
:100A700091110DC010922D4910922E4981E090E005
:100A8000809300409093014010922C49C9CF81502F
:100A900069F7C6CF80914B498C3139F482E090E000
:100AA0008093004090930140BBCFE0914B4981E09F
:100AB0008E0F80934B49F0E0E15DF64B9083B0CF11
:100AC00080912C499D3041F4E0912D49F0912E49BF
:100AD000309721F30995E2CF843A01F380912C49B4
:100AE0008F5F80932C499CCF8091450480688093D0
:100AF0004504A0CF1F920F920FB60F9211248F932F
:100B00005E9B07C0569B0DC0809125088F7D80930A
:100B100025088FEF8BB98F910F900FBE0F901F900C
:100B20001895809125088062F2CF8091FD4985FF5C
:100B30000CC0E091FB49F091FC4986FF13821682BC
:100B40008091FD498F7D8093FD498091FD4986FF0D
:100B50000FC0E091FB49F091FC4985FF1382148698
:100B6000118616868091FD498F7B8093FD49118205
:100B700090E080E0089585EF90E00895CF92DF92B5
:100B8000EF92FF920F931F93CF93DF9388EE93E042
:100B9000A8E5B2E0FD013197F1F70197D9F7F90126
:100BA0007081660F6093FE49E091FB49F091FC492A
:100BB00085818370D9F480E089017A0190E0F901A0
:100BC00080839183EA016E01CE18DF08F8018081ED
:100BD0009181C816D90608F046C08FEE99E40E94AC
:100BE00063028F3F980791F38993EDCF833009F427
:100BF000FFCF61606783858187FFFDCF858184FD9D
:100C00002AC080E062E0E091FB49F091FC499581C7
:100C10009C7089F6823801F19085E091014AF0E0FC
:100C2000E257F54B90839091014A9F5F923808F00C
:100C300090E09093014A8F5FE091FB49F091FC496D
:100C4000972F733808F092E8891730F46483958100
:100C500097FFFDCFD8CF80E0E091FB49F091FC49B0
:100C600097E09483A9CF90E080E0DF91CF911F912E
:100C70000F91FF90EF90DF90CF900895EF92FF9249
:100C80000F931F93CF93DF938A017901660F6093CF
:100C9000FE498091FF498093004AD0E0C0E0CE1524
:100CA000DF0560F4F801EC0FFD1F60818FEE99E421
:100CB0000E94C002892B99F32196F1CFE091FB4964
:100CC000F091FC498581837089F18091FE498E7F86
:100CD000958193709330E1F38783958196FFFDCFE3
:100CE000958193FDF5CF90E08581282F2C70F1F44C
:100CF00084FD1AC0992341F08091004A8F5F8238A9
:100D000008F080E08093004AA091004A8091FF495A
:100D10008A1751F0B0E0A45FB54B8C9180879F5F3C
:100D2000858186FFFDCFE0CF83E0848390E080E083
:100D3000DF91CF911F910F91FF90EF90089590E078
:100D400080E008958091FB499091FC49811529E04C
:100D50009207D1F58091E5058C7F82608093E5054F
:100D60008091FD4985FF07C0FB0166817781808501
:100D700091850E94D0008091FD4985FD18C0E091C9
:100D8000FB49F091FC49E11529E0F20741F580911A
:100D9000E50583708230F9F48CE0809346048091FD
:100DA000FD4980628093FD4981E083838583809142
:100DB000FD4985FF06C060EA76E881E090E00E9488
:100DC000D00090E080E008958032994049F680910B
:100DD000E50588E0C3CF8CE080930604E0CFE032E5
:100DE00089E0F807E1F68091E5058C70883021F400
:100DF0008CE080932604D3CF8CE08093A604CFCFE1
:100E0000DC0199E0EEE2F7E401900D929A95E1F7AA
:100E100080E090E00895EF92FF920F931F93CF939D
:100E2000DF930097B1F08B01EC0188819981892BC8
:100E300019F0CE010E94E207C8010E94BC07888316
:100E40009983009779F0F8012281338123303105AD
:100E500091F080E090E0DF91CF911F910F91FF9092
:100E6000EF90089581EE90E0DF91CF911F910F9167
:100E7000FF90EF9008958C01075F1F4FEE24E394DD
:100E8000F12C23E130E040E050E060E00E94971355
:100E9000009709F7E881F9818185887F8187D9CF1B
:100EA000BC0189E59EE40C940B07CF93DF93009778
:100EB000A1F0EC018091594E90915A4E892B21F06E
:100EC00089E59EE40E94E207C093594ED0935A4EA2
:100ED00080E090E0DF91CF91089582EE90E0DF9185
:100EE000CF9108950E94E20780E090E0089589E59F
:100EF0009EE40E94E20780E090E008958091594EC0
:100F000090915A4E0895009741F0DC01ED91FC91CB
:100F1000309719F082819381089580E290E00895DE
:100F2000E091594EF0915A4E309741F00190F08186
:100F3000E02D309719F082819381089580E290E04E
:100F40000895009749F0DC01ED91FC91309721F074
:100F500080819181892B11F08FEF0895848108950C
:100F600021E0409708F020E0822F089521E040978B
:100F700009F020E0822F08950F931F93CF93DF9302
:100F8000009799F0EC0161E070E086E190E00E944A
:100F9000C06B8C01009749F0BC01CE010E945C0E31
:100FA000892B51F0C8010E94786C80E090E0DF91BD
:100FB000CF911F910F910895C801DF91CF911F919B
:100FC0000F910895CF93DF93009769F0EC0188812A
:100FD0009981009721F00E94A50F888199810E9434
:100FE000786C18821982DF91CF910895009729F0CB
:100FF0006115710511F00C945C0E82EE90E008957D
:101000000895009711F00C94A50F82EE90E00895DA
:10101000CF93DF93FC01DA018081803409F460C052
:101020008181803409F45CC08281803409F455C028
:101030008381803409F45AC043E050E08D919C9143
:101040001197480F591F2417350708F449C09C0110
:101050002F5F3F4F2D933C931197EB01C80FD91F82
:101060002081322F330F330F218122952F70232BB4
:1010700028838281803461F18D919C9111979C012C
:101080002F5F3F4F2D933C931197EB01C80FD91F52
:10109000818120E1829FC0011124928196959695CD
:1010A000892B88838381803499F08D919C9111974D
:1010B0009C012F5F3F4F2D933C93DB01A80FB91F7D
:1010C000828120E4829FC00111249381892B8C931B
:1010D00080E090E0DF91CF9108958381803449F0E2
:1010E00082EE90E0DF91CF910C94A14F42E050E06E
:1010F000A5CF41E050E0A2CF3F924F925F926F9216
:101100007F928F929F92AF92BF92CF92DF92EF9297
:10111000FF920F931F93CF93DF9300D000D0CDB7F2
:10112000DEB769837A833901302EFC2CF901A08067
:10113000B18010821182672B09F4D2C0DC0180E0FB
:1011400090E020E030E070E2572EEDE08E2EEAE0F5
:101150009E2EB9016E5F7F4F6B837C83A616B70608
:10116000E0F1FA01E20FF31F1D91012F02950F70BC
:101170006F010A3008F08FC07FEFC71AD70A005DF1
:101180000083E12FEF70EA30D0F560E36E0FF601D7
:101190006083019669817A8168177907D1F1009798
:1011A00009F481C03320E1F0FC01EF70FF27EF2B41
:1011B000B9F42C5F3F4FA216B30678F06B817C81A7
:1011C000640F751FFB0180829182B9016E5F7F4FB2
:1011D0006B837C83A616B70620F68DEE90E046C0A2
:1011E000EE2009F460C02D5F3F4FA216B306A8F3AE
:1011F0006B817C81640F751FFB015082AACF67E36E
:101200006E0FF6016083019669817A81681779070C
:1012100031F68A01FF2009F449C041155105B1F0AA
:101220006B817C816115710589F06A017B01E40E97
:10123000F51EF6018081082E000C990B0E94096DA5
:10124000F60181936F01EE16FF0699F72B813C8121
:10125000F301208331832A153B0530F42B813C8137
:10126000200F311FF901108280E090E02496CDBF5D
:10127000DEBFDF91CF911F910F91FF90EF90DF9034
:10128000CF90BF90AF909F908F907F906F905F9026
:101290004F903F9008956FEFC61AD60A67E3462E27
:1012A000400E40826ECF2B813C8153CF41155105BA
:1012B00069F22B813C812115310541F26A017901E6
:1012C000E40EF51EF6018081082E000C990B0E9499
:1012D000016DF60181936F01EE15FF0599F7B6CF09
:1012E0001B821C8296CFCF92EF920F93009789F0CA
:1012F0004115510571F02115310559F0CC24C394E5
:10130000EE24E39401E00E947C080F91EF90CF90CF
:10131000089582EE90E00F91EF90CF900895CF93D3
:10132000DF93E901009769F04115510551F02881DB
:1013300039812617370750F48DEE90E0DF91CF9179
:10134000089582EE90E0DF91CF91089561157105C7
:1013500049F0DC01A60FB71FFA013E913193A8179F
:10136000B907D9F76883798380E090E0DF91CF9166
:101370000895CF92EF920F93009761F041155105B8
:1013800049F02115310531F00E947C080F91EF9052
:10139000CF90089582EE90E00F91EF90CF90089556
:1013A0008F929F92AF92BF92CF92DF92EF92FF9275
:1013B0000F931F93CF93DF936B015901802E672BFF
:1013C00009F488C0EC01E0E0F0E011E0E12CF12C40
:1013D000992493940991319680ED800F8A3028F0FA
:1013E000902F9F7D9154963058F5D5012D913C91C9
:1013F000E216F30608F06BC0112309F443C0DA01CA
:10140000AE0DBF1D8A3008F456C08FE9800F8630BC
:1014100008F44FC08FEB800F863008F053C089EC82
:10142000800F8295807F8C931925EC15FD0590F235
:101430001123C9F0F501E082F18280E090E015C04F
:101440009F01ABEABAEA0E94976B969587959C013B
:10145000220F331F820F931FE817F90731F78820F7
:1014600021F3003211F382EE90E0DF91CF911F91D2
:101470000F91FF90EF90DF90CF90BF90AF909F9033
:101480008F9008958A3050F08FE9800F8630B8F041
:101490008FEB800F8630C8F489EC800FDA01AE0D37
:1014A000BF1D9C91890F8C93BFEFEB1AFB0A192586
:1014B000BCCF89EA800F8295807F8C93B5CF89EA73
:1014C000800FECCF80E08C93AFCF80E1E7CF8DEE43
:1014D00090E0CBCFE12CF12CADCF0F9300E00E9438
:1014E000D0090F91089590ED980F81E09A3008F09F
:1014F00080E008958D3051F097EF980F923030F0E2
:1015000091E0803209F090E0892F089591E0892FD1
:1015100008958F7D9FEB980F81E09A3108F080E06D
:1015200008958F7D9FEB980F81E0963008F080E062
:10153000089590ED980F9A3088F0982F9F7D9154E0
:10154000963060F08D3051F097EF980F923030F078
:1015500091E0803221F090E0892F089591E0892F69
:10156000089590ED980F9A3048F08F7D9FEB980F7B
:1015700081E0963008F4089580E0089581E00895B0
:101580000F931F93CF93DF93009781F1411551057E
:1015900069F12115310551F16115710571F1FC01F8
:1015A000680F791FA0E0B0E0819190ED980F9A301C
:1015B00028F0982F9F7D9154963058F4E9010881C6
:1015C00019810A171B0740F0EA01CA0FDB1F888345
:1015D0001196E617F70741F7F901A083B18380E080
:1015E00090E0DF91CF911F910F91089582EE90E0EE
:1015F000DF91CF911F910F910895A0E0B0E0ECCF63
:1016000090ED980F9A30E0F0982F9F7D91549A3189
:10161000B8F0282F880F330BFB01808190E028174A
:10162000390771F0FB01818190E02817390741F0FB
:10163000428150E081E04217530721F080E0089595
:1016400081E008950895CF93C82F0E94000B811167
:101650000AC0CD3051F087EF8C0F823030F081E03E
:10166000C03209F080E0CF91089581E0CF910895D4
:101670009FEB980F9A31F8F09FE9980F9A31C8F0D4
:1016800090ED980F9A30D8F0082E000C990BFB01C2
:10169000208130E08217930781F0218130E08217AA
:1016A000930779F0228130E08217930761F08FEF82
:1016B000089587540895892F08958EE308958C5FC7
:1016C00008958FE3089580E408958A3198F096EEA6
:1016D000980F9A3168F09CEC980F9A3068F08E332E
:1016E00069F08F3371F0803479F4FB0182810895C1
:1016F000895B08958F5B089584500895FB01808174
:101700000895FB01818108958FEF08952F923F92F4
:101710004F925F926F927F928F929F92AF92BF9201
:10172000CF92DF92EF92FF920F931F93CF93DF93AD
:10173000CDB7DEB72697CDBFDEBF2A0139010097AE
:1017400009F496C0452B09F493C02115310509F41D
:101750008FC00115110509F48BC0F9010190F081CA
:10176000E02DED83FE83F901108211826115710570
:1017700009F48AC07C014C01860E971EC12CD12C25
:10178000212C05C06501E814F90409F43EC0F701F5
:1017900031907F01FDE03F16B1F387EF830D82307A
:1017A00090F320E2321679F3B801832D0E94000BEA
:1017B000882309F462C0211060C056013FEFA31ACC
:1017C000B30AB801832D0E94380BE1E0F0E0EC0F82
:1017D000FD1FEC0DFD1D808384E0A816B10494F27A
:1017E0002D813E81A301B201CE0101960E9408081D
:1017F000009741F5222423948C81803409F0212C18
:10180000C12CD12CE814F90411F6C114D104E1F172
:10181000E1E0CE16D10461F1CE010196F4E0CF16DD
:10182000D10454F4FC01EC0DFD1D20E4208332E0D2
:10183000C316D10409F42C832D813E81A301B2018A
:101840000E9408082696CDBFDEBFDF91CF911F9181
:101850000F91FF90EF90DF90CF90BF90AF909F904F
:101860008F907F906F905F904F903F902F90089552
:1018700082EE90E00E94A14FE5CF82EE90E00E94C0
:10188000A14F0097F9F6C1CF80E090E0DBCF2F9217
:101890003F924F925F926F927F928F929F92AF9200
:1018A000BF92CF92DF92EF92FF920F931F93CF934D
:1018B000DF9300D000D0CDB7DEB78B839C833B0194
:1018C0004A01F901452B09F414C1892B09F411C10E
:1018D000309709F40EC10115110509F40AC19B01E5
:1018E000ABEABAEA0E94976B969587959C01220F06
:1018F000331F820F931F41E050E06816790609F408
:10190000F5C09301ABEABAEA0E94976B969587956A
:101910009A01280F391F220F331F220F331FD801BE
:1019200013966C91662361F0862F837009F0E1C0F5
:1019300070E0C9010E943D6B660F771F260F371FAD
:101940002F5F3F4F808191818217930708F4EAC08F
:10195000E983FA83108211826114710409F4E5C0ED
:10196000212C312CE12CF12CA12CB12CF80163811C
:101970006623E1F0A114B104C9F070E0C701821937
:1019800093090E943D6B892B89F4F401EE0DFF1D34
:101990008DE08083F7013196E80DF91D92E0E90EA4
:1019A000F11CAAE0A083B2E02B0E311C6701EFEF1F
:1019B000CE1ADE0A24014E0C5F1CAB81BC818C91D7
:1019C000B801869586950E94650BF2018083AB81F4
:1019D000BC819C9193709295907F95012F5F3F4FB2
:1019E0002615370508F0B8C02701B2E04B0E511C90
:1019F000C80CD91CEB81FC81818182958F70B80164
:101A0000892B0E94650BD6018C93EB81FC8191811F
:101A10009F70990F990F95012E5F3F4F6401C40C81
:101A2000D51C2615370508F085C0828182958695DC
:101A300086958370B801892B0E94650BD6018C9323
:101A40006701B3E0CB0ED11CC80CD91CE4E0EE0E4C
:101A5000F11CAB81BC8112968C91B8018F730E94EE
:101A6000650BF601808393E0A90EB11CAB81BC81AC
:101A70001396AB83BC83A614B70408F477CFC701D1
:101A8000B2E0EB16F10490F00197F401E80FF91FB2
:101A90002081222341F04CC0AC01415051092291D8
:101AA000211104C0CA0181309105B1F7F401E80F9A
:101AB000F91F1082E981FA818083918380E090E0B0
:101AC0002496CDBFDEBFDF91CF911F910F91FF9084
:101AD000EF90DF90CF90BF90AF909F908F907F90CE
:101AE0006F905F904F903F902F90089540E050E0AE
:101AF00008CF82EE90E02496CDBFDEBFDF91CF917C
:101B00001F910F91FF90EF90DF90CF90BF90AF901B
:101B10009F908F907F906F905F904F903F902F900D
:101B20000C94A14F8DEE90E0E6CF80E090E0BECF28
:101B3000C701BCCFB801892F0E94650BD6018C93D9
:101B4000F7013396E80DF91DB4E0EB0EF11CD80156
:101B500012968C91808387CFC80CD91CB801892F2D
:101B60000E94650BF6018083D80112968C91129722
:101B7000F2018283F7013396E80DF91D84E0E80E47
:101B8000F11C12968C9180836ECF0F931F9303E20A
:101B900010E40E94470C1F910F9108950F931F931B
:101BA00003E210E40E94860B1F910F910895FC013F
:101BB000892BE9F062177307D0F061157105A1F068
:101BC0002115310589F0C901861B970BBC016F5F98
:101BD0007F4F04C021503109FC0131F0CF01019643
:101BE000408362177307B1F780E090E008958FEFAC
:101BF0009FEF0895CF93DF93EC01AC014C5F5F4FF3
:101C0000BC016E5F7F4F888199810E940A4F0E94BC
:101C1000A14F0097C1F4AC81BD81109711F1ED91F6
:101C2000FC911197309709F442C012968D919C91C6
:101C30001397892BE1F168817981CE0109950E9482
:101C4000A14F009719F0DF91CF910895EC81FD81AC
:101C50000280F381E02DCE0109950E94A14F0097EB
:101C600091F7AA81BB81ED91FC9111973097C9F052
:101C700012968D919C911397892B99F068817981A7
:101C8000CE0109950E94A14F0097E9F6EA81FB81F8
:101C90000280F381E02DCE010995DF91CF910C9464
:101CA000A14F86EF90E0DF91CF910C94A14F86EF8A
:101CB00090E00E94A14FD3CF009759F061157105B4
:101CC00041F0FB0180839183CB010E94FA0D0C94BB
:101CD000A14F82EE90E008950F931F93CF93DF936F
:101CE0008C0188E090E00E94DC6BEC01011511058D
:101CF00051F0009741F0088319830E94FA0D0E9469
:101D0000A14F892B51F0CE010E94786C80E090E0C9
:101D1000DF91CF911F910F910895CE01DF91CF9167
:101D20001F910F910895009711F00C94FA0D80EF18
:101D300090E00895CF93DF93009701F1DC011296B4
:101D4000ED91FC9113973097A1F00480F581E02D7F
:101D5000309779F00D90BC91A02DCD91DC91119729
:101D6000CD2B21F46F3F11F414966C91DF91CF913C
:101D700009948DEF90E0DF91CF91089582EE90E08D
:101D8000DF91CF910895009781F0DC011296ED91DB
:101D9000FC911397309731F00680F781E02D309752
:101DA00009F009948DEF90E0089582EE90E0089597
:101DB000009781F0DC011296ED91FC91139730971A
:101DC00031F00084F185E02D309709F009948DEF12
:101DD00090E0089582EE90E00895CF93DF9300970E
:101DE000F1F0DC011296ED91FC911397309791F090
:101DF0000084F185E02D309769F0EC0120E030E0BF
:101E000040E050E060E00995803D910569F0DF9188
:101E1000CF9108958DEF90E0DF91CF91089582EEFC
:101E200090E0DF91CF9108958AE698E10197F1F76C
:101E3000EA81FB810084F185E02D20E030E040E084
:101E400050E060E0CE01DF91CF9109940097D1F08E
:101E5000DC011296ED91FC911397309781F000848C
:101E6000F185E02D309759F020E030E040E050E07F
:101E700061E00995EAEFF0E03197F1F708958DEF11
:101E800090E0089582EE90E008950097D1F0DC0193
:101E90001296ED91FC911397309781F00084F185B3
:101EA000E02D309759F020E030E040E050E062E073
:101EB0000995EAEFF0E03197F1F708958DEF90E0A2
:101EC000089582EE90E00895009721F0FC01808152
:101ED0009181089580E090E00895009721F0FC0141
:101EE00086819781089580E090E00895009779F0C9
:101EF000DC01ED91FC91309751F020813181C901D5
:101F00000497029730F081E02230310519F080E02B
:101F1000089581E00895009741F0DC01ED91FC9176
:101F2000309719F08789908D089580E090E00895AA
:101F3000009741F0DC01ED91FC91309719F0858913
:101F4000968908958CED95E008950F931F93CF9394
:101F5000DF930097F1F0DC01ED91FC913097C9F02F
:101F6000EC016E817F81808191810E941A4F8C01EA
:101F7000892B11F41E821F82E881F9818081918171
:101F8000069749F48A819B810E94786C1A821B8291
:101F900002C002EE10E0C801DF91CF911F910F91B6
:101FA0000895CF93DF93009759F0EC0188819981D0
:101FB0000E94A50F888199810E94786C18821982ED
:101FC000DF91CF910895CF92DF92EF92FF920F931E
:101FD0001F93CF93DF93CDB7DEB7C75CD109CDBFD9
:101FE000DEBF6C01892B09F446C06C834D835E8390
:101FF0002115310539F0F901808191818F8398870E
:1020000082818987C6010E948307BE016F5F7F4F6F
:102010000E944E537C01892B09F5B601CE01019631
:102020000E9476567C01892BC9F40115110541F0F7
:102030008F818334B9F086EE90E00E94A14F7C013D
:10204000C701C953DF4FCDBFDEBFDF91CF911F91D5
:102050000F91FF90EF90DF90CF900895C7010E94FD
:10206000A14FEECF80E4FE013896D80101900D9289
:102070008A95E1F7E5CF82EE90E00E94A14F7C01C6
:10208000DFCF0F931F938A0120E030E0AB0164E0C3
:102090000E94E30F1F910F9108950F931F938A01E0
:1020A00020E030E0AB0160E00E94E30F1F910F9150
:1020B0000895AF92BF92CF92DF92EF92FF920F936B
:1020C0001F93CF93DF93CDB7DEB7C75CD109CDBFE8
:1020D000DEBF7C015B016A01892B11F180E28C83F8
:1020E0001D821E82C7010E948307BE016F5F7F4F62
:1020F0000E944E538C01892BD1F0C8010E94A14F40
:10210000C801C953DF4FCDBFDEBFDF91CF911F9113
:102110000F91FF90EF90DF90CF90BF90AF90089518
:1021200082EE90E00E94A14F02EE10E0E9CFB701ED
:10213000CE0101960E9476568C01892BF1F68F8193
:102140008336C1F4A114B10441F080E4FE01389655
:10215000D50101900D928A95E1F7C114D10481F265
:1021600080E2FE01E85BFF4FD60101900D928A9557
:10217000E1F7C6CF86EE90E00E94A14F8C01C0CF60
:102180008F929F92AF92BF92CF92DF92EF92FF9287
:102190000F931F93CF93DF93CDB7DEB7C95CD109FF
:1021A000CDBFDEBF5C01D62EBA01422F202F892B76
:1021B00051F1E114F10439F184E0C81609F44EC07C
:1021C000E0E2CE1220C04E01F8EC8F0E911C84018B
:1021D0008D2D0E94CD518C01892BD9F0C8010E9410
:1021E000A14FC801C753DF4FCDBFDEBFDF91CF91F5
:1021F0001F910F91FF90EF90DF90CF90BF90AF9025
:102200009F908F90089582EE90E00E94A14F8C01E4
:10221000E8CFFD2DF068DF2EDC82F4018081918112
:102220008D839E83C5010E948307BE016F5F7F4F30
:102230000E94E4538C01892B89F6B501CE010196E9
:102240000E9476568C01892B49F64C2D50E0BE0138
:10225000685F7F4FC7010E941E6DC3CF4E0188EC9F
:10226000880E911C84018D2D0E94CD518C01892BEB
:1022700099F2B4CFAF92BF92CF92EF92FF920F93A9
:102280001F93CF93DF93CDB7DEB7A097CDBFDEBF4F
:102290005B01672BA9F120E2C22E9E012F5F3F4F09
:1022A000790100E020E040E050E060E00E94C010D2
:1022B0008C01009709F589819A81F50180839183CA
:1022C0008B819C8182839383D501149685E0FE01E6
:1022D000399601900D928A95E1F780E090E0A09602
:1022E000CDBFDEBFDF91CF911F910F91FF90EF9097
:1022F000CF90BF90AF9008950E94A14FC801EFCF3B
:1023000082EE90E00E94A14FEACF2F923F924F922F
:102310005F926F927F928F929F92AF92BF92CF9275
:10232000DF92EF92FF920F931F93CF93DF93CDB77E
:10233000DEB7CB5AD109CDBFDEBF4C01C755DF4F49
:1023400068837983C95AD040C555DF4F4883CB5A3B
:10235000D040590138011E2DC855DF4FF882C85AA8
:10236000D04026011E0184E4280E311C80E2D101F8
:102370001D928A95E9F7CE55DF4F188219821A828D
:102380001B82C25AD040232B09F4ECC061147104A3
:1023900009F4E8C030E2C32EFE01EC59FF4F7F0183
:1023A00000E020E040E050E060E0C4010E94C01086
:1023B0007C01892B09F0BBC045E050E064E670E089
:1023C0006C0F7D1F685F7F4F84E690E08C0F9D1F30
:1023D00004960E94276DA101B201C4010E945058C9
:1023E0007C01892B09F0A3C0CE010196CA55DF4FAD
:1023F00088839983C65AD04083E4CA55DF4FA881A9
:10240000B981C65AD0401D928A95E9F7FE01E75678
:10241000FF4F89E0DF011D928A95E9F743825482DC
:102420002582368281E090E08C0F9D1F8783908704
:10243000CF010E94E0167C01892B09F078C095E15C
:10244000592ECE55DF4F5882C25AD04022E0422E3C
:10245000CD55DF4F4882C35AD040CC55DF4F18834B
:10246000C45AD040C855DF4F9881C85AD040CB5588
:10247000DF4F9883C55AD04004E09E012E553F4F50
:10248000412F592F62E0C4010E943F577C01892BE4
:1024900009F04DC0FE01EC57FF4FDF011D925A9429
:1024A000E9F71183C855DF4FB881C85AD040B283CD
:1024B00084E690E08C0F9D1F858796876786708ADB
:1024C0004082A2EAB0E0AC0FBD1FA18BB28B81E0CD
:1024D00090E08C0F9D1F838B948BCF010E942D1E4B
:1024E0007C01892B21F580E2C82E750100E0C555DD
:1024F000DF4F2881CB5AD040C755DF4F48815981E3
:10250000C95AD04062E8C4010E94C0107C01892BE6
:1025100071F4DE011196F5019E012F5D3F4F8D9103
:10252000908189278193A217B307C9F703C0C70118
:102530000E94A14FC701C555DF4FCDBFDEBFDF9160
:10254000CF911F910F91FF90EF90DF90CF90BF90B0
:10255000AF909F908F907F906F905F904F903F9043
:102560002F90089582EE90E00E94A14F7C01E2CF6F
:102570008F929F92AF92BF92CF92EF92FF920F9362
:102580001F93CF93DF9341155105B9F19B0128505B
:1025900031092830310588F55A014B01EC0190E2F0
:1025A000C92E7A0100E020E0AB0162E0CE010E947A
:1025B000C0108C01892BE9F4750180E2E80EF11C52
:1025C00080E2C82E00E021E0A40162E0CE010E947A
:1025D000C0108C01892B69F4C801DF91CF911F9144
:1025E0000F91FF90EF90CF90BF90AF909F908F9002
:1025F0000895C8010E94A14FEFCF82EE90E0DF91D5
:10260000CF911F910F91FF90EF90CF90BF90AF901F
:102610009F908F900C94A14F6F927F928F929F9278
:10262000AF92BF92CF92EF92FF920F931F93CF93EF
:10263000DF93CDB7DEB7A097CDBFDEBF3C014B0126
:102640005A01452B09F46EC0CB010897089708F092
:1026500069C020E2C22ECE0101967C0100E020E09C
:10266000AB0162E0C3010E94C0108C01892B09F00C
:1026700044C08CE1FE013596D50101900D928A95FA
:10268000E1F790E2C92EFE0131967F0100E021E0E2
:10269000A40162E0C3010E94C0108C01892B69F57E
:1026A00089819A81F501848F958F8B819C81868F9A
:1026B000978F88E1FE013996D501909601900D9291
:1026C0008A95E1F780E2C82ECE0101967C0100E0F8
:1026D00022E0A40162E0C3010E94C0108C01892B9A
:1026E00061F4D501D89688E0FE01319601900D92F3
:1026F0008A95E1F780E090E004C0C8010E94A14FF4
:10270000C801A096CDBFDEBFDF91CF911F910F9181
:10271000FF90EF90CF90BF90AF909F908F907F9061
:102720006F90089582EE90E00E94A14FEACF2F9221
:102730003F924F925F926F927F928F929F92AF9251
:10274000BF92CF92DF92EF92FF920F931F93CF939E
:10275000DF93CDB7DEB7A897CDBFDEBF8FA398A715
:10276000D62E4DA35EA339012801470119A21AA252
:1027700082E0861708F4C1C092E0691709F4B8C076
:102780008114910409F479C04114510409F4B5C0CD
:102790009E012F5D3F4F4DA15EA16D2D8FA198A58C
:1027A0000E941D527C01892B09F0ACC029A13AA1DD
:1027B000C401860D971D2817390708F49EC0C30170
:1027C00096958795929582958F7089279F70892716
:1027D0008BA39CA310E2212C312CA12CB12C25C061
:1027E000B301681B790B812F90E0861B970B740156
:1027F000EA18FB088E159F0508F47C0181E090E043
:102800008C0F9D1F680F791FA701C2018A0D9B1DA8
:102810000E941E6DAE0CBF1C103209F463C09FEF06
:10282000291A390AA814B90440F51032F1F1C12E61
:10283000CE0101967C01022D2BA14DA15EA16D2D33
:102840008FA198A50E94C0107C01892B09F05AC065
:102850008BA19CA1880F991F880F991F880F991F22
:10286000820D931D880F991F880F991F8615970554
:1028700008F4B6CF60E070E0B6CF80E090E0A896B4
:10288000CDBFDEBFDF91CF911F910F91FF90EF90F1
:10289000DF90CF90BF90AF909F908F907F906F9080
:1028A0005F904F903F902F90089589A19AA12BA1FE
:1028B0003CA1220F331F22953295307F3227207F93
:1028C0003227821B930B809708F0B1CF13012A0C9B
:1028D0003B1C369427943694279497E0292233247E
:1028E00014E0A5CF8BA19CA101968BA39CA39ACFAA
:1028F0008DA19EA1409708F443CF82EE90E00E9404
:10290000A14FBDCFC7010E94A14FC701B8CFEF9221
:10291000FF920F931F93CF93DF936115710531F1F0
:102920008B01EC01E881F981828193810E941A5523
:10293000811118C080E8E82EF12C20E030E040E062
:1029400050E060E0CE010E949713EC01009711F077
:102950000E94A14FCE01DF91CF911F910F91FF9067
:10296000EF90089598E5E92EF12CE7CF82EE90E004
:10297000DF91CF911F910F91FF90EF900C94A14F99
:10298000AF92BF92CF92DF92EF92FF920F931F937D
:10299000CF93DF93CDB7DEB7C258D109CDBFDEBF2D
:1029A0005C016B017A01CF57DF4F18821982C15841
:1029B000D040672B09F458C04115510509F454C0A3
:1029C000DA011C92BE016F5F7F4F0E9487148C0159
:1029D000892BB9F59E012F573F4F40E050E060E052
:1029E000C5010E941D528C01892B59F544E250E02B
:1029F000B601605F7F4FCE0141960E94116D892B19
:102A000019F5D501ED91FC9182819381039791F1A4
:102A1000CF57DF4F48815981C158D0404B355105C0
:102A200060F04A555109B601665A7F4FCE01855A6A
:102A30009F4F0E94116D892B39F481E0F70180834B
:102A400003C0C8010E94A14FC801CE57DF4FCDBFC0
:102A5000DEBFDF91CF911F910F91FF90EF90DF903C
:102A6000CF90BF90AF90089582EE90E00E94A14F6A
:102A70008C01EACF40E150E0B6016C5B7F4FCE01A4
:102A80008B5B9F4F0E94116D892B11F2DDCFCF928E
:102A9000DF92EF92FF920F931F93CF93DF93CDB707
:102AA000DEB7C75CD109CDBFDEBF8C0169010097DD
:102AB00069F1232B59F16C834D835E830E94830758
:102AC000BE016F5F7F4F0E9439547C010097D1F4A3
:102AD000B801CE0101960E9476568C010097D9F478
:102AE0008F818334E1F086EE90E0C953DF4FCDBF94
:102AF000DEBFDF91CF911F910F91FF90EF90DF909C
:102B0000CF9008950E94A14FC701EFCF82EE90E0D1
:102B10000E94A14FEACF0E94A14FC801E6CF80E4F6
:102B2000FE013896D60101900D928A95E1F780E07A
:102B300090E0DBCF8F929F92AF92BF92CF92DF92C5
:102B4000FF920F931F93CF93DF938C016B014A0188
:102B5000590160E070E00E945D58EC01892BE1F4BE
:102B6000D801ED91FC9182819381039729F1F12C99
:102B700060E020E230E0A401C8010E941958EC0195
:102B8000892B51F46F2D60689501A601C8010E9440
:102B90004715EC01892B19F0CE010E94A14FCE01FF
:102BA000DF91CF911F910F91FF90DF90CF90BF9059
:102BB000AF909F908F90089580E2F82E60E4D9CF77
:102BC0000F931F93CF93DF93FB01642F2111606458
:102BD0009801AF010E944715EC01009711F00E9487
:102BE000A14FCE01DF91CF911F910F910895AF9228
:102BF000BF92CF92DF92EF92FF920F931F93CF93EA
:102C0000DF93CDB7DEB7C75CD109CDBFDEBF8C0186
:102C10006A0159011C826D837E83892B61F1452BEA
:102C200051F180E2F601DE01179601900D928A952E
:102C3000E1F7C8010E948307BE016F5F7F4F0E94CA
:102C40003954B801CE0101960E9476567C01009756
:102C500009F5AB28C1F0C701C953DF4FCDBFDEBFB7
:102C6000DF91CF911F910F91FF90EF90DF90CF9068
:102C7000BF90AF90089582EE90E00E94A14F7C013A
:102C8000892B49F7CECF8F81833439F086EEE82E39
:102C9000F12CE1CF0E94A14FDECF80E4FE013896F7
:102CA000A0E0B0E001900D928A95E1F7D4CFCF93E8
:102CB000DF93EC018E8184FD76C085FD54C0E881F0
:102CC000F98188E0DF011D928A95E9F7E881F981B1
:102CD0003896E883F98383E0DF011D928A95E9F74E
:102CE000E881F9813396CF01019688839983AC817D
:102CF000BD8118968C9180838E81E881F98186FF51
:102D00003CC0AC81BD8114968D919C9115978083B8
:102D1000918316968D919C91179782839383E88176
:102D2000F981CF01059688839983AC81BD818C910F
:102D30008483E881F981CF01019688839983AC81EE
:102D4000BD8111968C9180838E81E881F98186FD09
:102D50001AC0108211828881998102968883998392
:102D6000DF91CF910895A881B981EA81FB8188E044
:102D700001900D928A95E1F7A9CF84E0DF011D92C1
:102D80008A95E9F7CCCFAC81BD8112968D919C914B
:102D90001397808391838881998102968883998390
:102DA000DF91CF910895A881B981EA81FB818BE001
:102DB00001900D928A95E1F7E881F9813B9693CFD6
:102DC0000F931F93CF93DF93CDB7DEB7E797CDBFB8
:102DD000DEBFDC0117964D915C91189741155105A6
:102DE000B1F013962D913C9114972115310579F08E
:102DF0008C01FC019081892F8370823090F08330A8
:102E000009F473C0FD016181728177FDC5C082EE56
:102E100090E0E796CDBFDEBFDF91CF911F910F917C
:102E200008950580F681E02D309789F311966D9114
:102E30007C91129780E277FDFBC0DE011196019034
:102E40000D928A95E1F784E1F901DE0191960190F6
:102E50000D928A95E1F786E18DAB9EAB1FAA67E3E1
:102E600070E0CE0101960E942E44D8011796ED9194
:102E7000FC911897E05CFF4F80818F7E80831796CE
:102E8000ED91FC911897E05CFF4F8081807F8083FB
:102E90001796ED91FC911897E05CFF4F80818F7D34
:102EA00080831796ED91FC911897E05CFF4F80812D
:102EB0008F7780831796ED91FC911897E05CFF4F18
:102EC000818181608183D8011796ED91FC911897DB
:102ED000EE5BFF4F108280E090E0E796CDBFDEBF53
:102EE000DF91CF911F910F910895892F807C09F078
:102EF00072C095FD40C080E2F901DA0101900D92A7
:102F00008A95E1F7D8011796ED91FC911897EE5B41
:102F1000FF4F1082D8011796ED91FC911897E05C55
:102F2000FF4F8081806180831796ED91FC91189707
:102F3000E05CFF4F8081807F80831796ED91FC914C
:102F40001897E05CFF4F80818F7D80831796ED910D
:102F5000FC911897E05CFF4F80818F7780831796F4
:102F6000ED91FC911897E05CFF4F81818160818336
:102F700080E090E04ECF80E4F901DA0101900D92FB
:102F80008A95E1F7D8011796ED91FC911897EE5BC1
:102F9000FF4F81E08083BECF0580F681E02D80E287
:102FA000DE01119601900D928A95E1F784E1F90115
:102FB000DE01919601900D928A95E1F786E18DAB45
:102FC0009EAB6FAB67E370E0CE0101960E942E448A
:102FD00080E090E01ECFFA01E05CFF4F80818061CD
:102FE00080831796ED91FC911897E05CFF4F8081EC
:102FF000807F80831796ED91FC911897E05CFF4FDE
:1030000080818F7D80831796ED91FC911897E05C0D
:10301000FF4F80818F7780831796ED91FC911897F1
:10302000E05CFF4F81818E7F818380E090E0F1CE74
:10303000DA0101900D928A95E1F745CF6F927F9268
:103040008F929F92AF92BF92CF92DF92EF92FF92B8
:103050000F931F93CF93DF93CDB7DEB7C05ED10937
:10306000CDBFDEBF0097B1F0FC0120813181232B61
:1030700089F022813381232B69F024813581232B30
:1030800049F0268137815901FFE1AF22BB24A11409
:10309000B104A9F082EE90E0C052DF4FCDBFDEBF99
:1030A000DF91CF911F910F91FF90EF90DF90CF9024
:1030B000BF90AF909F908F907F906F9008953695BE
:1030C0002795329522952F7023273F702327232B96
:1030D00009F455C08C013E0141EC640E711CEE24D4
:1030E000FF24E618F708812C912C630180E2C80EBA
:1030F000D11CCE0101960E949C43F8016081718130
:1031000040E250E0CE0101960E94A143F8016281A5
:1031100073816A0D7B1D40E150E0CE0101960E9453
:10312000A143B301CE0101960E94A943D301C70177
:103130008A0F9B1FF80124813581F901E80FF91FDF
:103140008D91908189278083CA16DB0681F7FFEF76
:103150008F1A9F0A40E1A40EB11C80E2E80EF11C18
:10316000F8018681978196958795929582958F70C3
:1031700089279F7089278816990608F4BACF80E0BE
:1031800090E08ACFAF92BF92CF92DF92EF92FF9200
:103190000F931F93CF93DF93CDB7DEB7C55ED109F1
:1031A000CDBFDEBFFC01808191E4CB51DF4F98831E
:1031B000C55ED04023813481232B09F47BC0678115
:1031C00070856115710509F475C021853285232B41
:1031D00009F470C08F01982F9072D92E83708330BC
:1031E00009F48CC0F0E29F1709F475C0D8011D9650
:1031F000ED91FC911E97309709F45CC05E01B1EC33
:10320000AB0EB11C80E2D50101900D928A95E1F7D9
:103210006B01FE0131967F01C7010E949C43D801DA
:1032200019966D917C911A9740E250E0C7010E9477
:10323000A14340E250E0B501C7010E94A14340E232
:1032400050E0B601C7010E94A143F8016381748177
:1032500040E450E0C7010E94A14385E4CF51DF4F15
:103260008883C15ED040D8018C91CE51DF4F8883D6
:10327000C25ED04011969C91119712968C91CD51BF
:10328000DF4F9883C35ED040CC51DF4F8883C45E4C
:10329000D04044E050E0BE016F517F4FC7010E9413
:1032A000A143F80167857089C7010E94A94380E0A6
:1032B00090E002C082EE90E0CB51DF4FCDBFDEBF89
:1032C000DF91CF911F910F91FF90EF90DF90CF9002
:1032D000BF90AF9008955E0181ECA80EB11C80E212
:1032E000FB01D50101900D928A95E1F7DE0111965F
:1032F0007D016B01B0E2CB0ED11C8ECF8581968112
:10330000892BC1F285859685892BA1F283859485C9
:10331000892B81F2DE0111967D01CD010E949C4333
:10332000F8016585768540E250E0C7010E94A1431F
:1033300041E050E0BE016B517F4FC7010E94A143A5
:10334000D80115966D917C9116974AE050E0C7011F
:103350000E94A143F80163857485685F7F4F41E057
:1033600050E0C7010E94A143D80115966D917C9150
:103370001697665F7F4F44E050E0C7010E94A1436B
:10338000F8016385748542E050E0C7010E94A143C3
:10339000D80115966D917C911697625F7F4F45E03D
:1033A00050E0C7010E94A1435E01B1ECAB0EB11C1D
:1033B000B501C7010E94A943E0E2DE1621F0F80141
:1033C000C780D08429CFD80117966D917C9118972A
:1033D00090CF0F931F93CF93DF93CDB7DEB7C05C31
:1033E000D109CDBFDEBFFC0184819581892B09F411
:1033F00058C082819381892B09F453C086819781BB
:10340000892B09F44EC080819181892B09F449C030
:1034100080859185892B09F444C08F01CE010196E6
:103420000E949C43D8016D917C9140E250E0CE0116
:1034300001960E94A143F8016281738140E250E04D
:10344000CE0101960E94A143D80116966D917C9100
:103450001797CE0101960E94A94320E030E0D801E1
:103460001896ED91FC911997AF01420F531F1496D6
:103470008D919C911597820F931F16960D90BC917C
:10348000A02DA20FB31FFC0180819C919827DA0127
:103490009C932F5F3F4F2032310509F780E090E089
:1034A00002C082EE90E0C054DF4FCDBFDEBFDF919F
:1034B000CF911F910F9108950F931F93CF93DF9397
:1034C000CDB7DEB7C45CD109CDBFDEBFFC018581BD
:1034D0009681892B09F461C087819085892B09F435
:1034E0005CC083859485892B09F457C08F01CE0178
:1034F00001960E949C43F8016581768140E250E08C
:10350000CE0101960E94A143F8016781708540E2D7
:1035100050E0CE0101960E94A143F8018081982FCE
:103520009770963009F444C0F80161857285611581
:10353000710599F140E450E0CE0101960E94A1434B
:10354000F801808190E8CF53DF4F9883C15CD04071
:10355000CE53DF4F8883C25CD040F80191818281D5
:10356000CD53DF4F9883C35CD040CC53DF4F88836B
:10357000C45CD04044E050E0BE016F537F4FCE01A9
:1035800001960E94A143F80163857485CE010196DE
:103590000E94A94380E090E002C082EE90E0CC530C
:1035A000DF4FCDBFDEBFDF91CF911F910F91089507
:1035B00023813481237033272330310509F0B4CFC0
:1035C000C1CF0F931F93CF93DF93CDB7DEB7CF5506
:1035D000D109CDBFDEBFDC0117964D915C911897E4
:1035E0006D964EAF5FAF6D9719966D917C911A975E
:1035F0006F966EAF7FAF6F972C91A0962FAFA0976D
:103600001B96ED91FC911C97EF2B19F0322F387817
:1036100059F082EE90E0C15ADF4FCDBFDEBFDF919F
:10362000CF911F910F910895022F027021FD06C0C6
:1036300015960D90BC91A02DAB2B59F3122F117044
:1036400020FF27C0322F337029F0FC01A585B685F5
:10365000AB2BF9F2E22FE07311F0452BD1F226FFEC
:1036600002C0672BB1F2332351F1DC011D964D915D
:103670005C911E97DA01A05CBF4F3C9137FF0FC0F1
:1036800011968C9111978E7F11968C9384EF90E018
:10369000C2CFFC01A381B481AB2BA1F6BACF4F5BA3
:1036A0005F4FFA01408140FFEBCF41E022FB5527FD
:1036B00050F954273295317034275313E1CFDC0190
:1036C00001114EC01596ED91FC91169730E2DE0186
:1036D000119601900D923A95E1F7DC01112309F45E
:1036E00044C01D96ED91FC911E978C0180E2DE0195
:1036F000919601900D928A95E1F788E022968FAF1E
:10370000229723962FAF2397F801918182812496E7
:103710009FAF249725968FAF2597CE018B5B9F4F48
:103720006B968EAF9FAF6B9744960E945716D80149
:103730001B964D915C911C9768E570E0CE01019657
:103740000E942E44F80185859685009799F0FC012A
:10375000E05CFF4F81818E7F818380E090E05BCFD2
:103760001D96ED91FC911E97B1CF1396ED91FC91B2
:103770001497BBCF80E090E04ECF7F928F929F92C4
:10378000AF92BF92CF92DF92EF92FF920F931F936F
:10379000CF93DF93CDB7DEB7C855D109CDBFDEBF1C
:1037A000009709F4AFC0DC0119962D913C911A974E
:1037B0002115310509F4A6C013966D917C911497DB
:1037C0006115710509F49EC017960D911C9118970B
:1037D0000115110509F496C05C91B52FB2707B2ECE
:1037E000E52FE170FE2E452F437009F49FC0DC01E8
:1037F0005196ED91FC915297EF2B09F483C0711013
:1038000006C0FC01A585B685AB2B09F47BC0FF2063
:1038100009F498C0F52FF072EF2E55FD6DC04111DF
:1038200098C0FE0131966F0148E5DF011D924A956F
:10383000E9F7DC011D96ED91FC911E9740E2D6015F
:1038400001900D924A95E1F7DC01FF2009F4DDC0FB
:103850005196ED91FC91529740E2DE0191960190D4
:103860000D924A95E1F7F9014081518123964EAFBF
:103870005FAF23974281538125964EAF5FAF259767
:10388000E110CFC07C01F901848195812F968EAF24
:103890009FAF2F97868160968FAF6097DB01189658
:1038A0008C91189761968FAF619787819085639609
:1038B0008EAF9FAF63978185928565968EAF9FAFE0
:1038C00065978D919C9167968EAF9FAF6797838523
:1038D000948569968EAF9FAF6997A80168E570E0FF
:1038E000C6010E942E44F70180818B7F813009F44C
:1038F0005CC080E090E008C0FC01A385B485AB2BE0
:1039000009F08DCF82EE90E0C85ADF4FCDBFDEBF09
:10391000DF91CF911F910F91FF90EF90DF90CF90AB
:10392000BF90AF909F908F907F900895E52FEB7F91
:10393000E13009F064CFFC01A785B089AB2B09F019
:1039400056CF5DCFFC01A581B681AB2B09F062CFCC
:10395000D9CFDC015196ED91FC9152975F01B1E412
:10396000AB0EB11CD5014C9140FD03C084EF90E03B
:10397000CBCF52FB882480F8912CAF01405C5F4F85
:10398000DA014C9144FBCC24C0F8D12C8C149D045A
:1039900069F7AE014F5F5F4F6A0148E5D6011D929E
:1039A0004A95E9F771104ACF44CF0784F089E02D9A
:1039B000309709F49ECFD70151962D913C915297A3
:1039C00080E2D90101900D928A95E1F7D7015196D5
:1039D000ED91FC915297E05CFF4F80818F7D808359
:1039E0005196ED91FC915297E05CFF4F8081806190
:1039F00080835196ED91FC915297E05CFF4F81815D
:103A00008160818380E090E07FCF1596ED91FC91FD
:103A1000169740E2DE01919601900D924A95E1F7EA
:103A200022CFDC011B96ED91FC911C9748E0DE0152
:103A3000AB5BBF4F01900D924A95E1F723CFAF9258
:103A4000BF92CF92DF92EF92FF920F931F93CF938B
:103A5000DF93CDB7DEB7CF59D109CDBFDEBFFC01B3
:103A600081859285892B69F083819481009749F043
:103A7000238534852115310521F04081542F5B7851
:103A800089F082EE90E0C156DF4FCDBFDEBFDF91FF
:103A9000CF911F910F91FF90EF90DF90CF90BF904B
:103AA000AF900895542F507321F065817681672B74
:103AB00041F367817085672B21F3B901605C7F4F0B
:103AC000DB015C9157FF07C0FB0181818E7F818301
:103AD00084EF90E0D8CF2F5B3F4FD9012C9120FF8E
:103AE000F3CF21E042FB442740F942275295517021
:103AF00052274513E9CF8E010F5F1F4F7E01B1E2C0
:103B0000EB0EF11CB80146E302C0838194819B0156
:103B1000201B310B820F931FDC018C918427DB016A
:103B20008D93BD01EA16FB0681F75F0140E250E08C
:103B300066E370E0C7010E94396D6E01B1E4CB0EFF
:103B4000D11C80E2F601282F11922A95E9F7D501C0
:103B50001B96ED91FC911C97DE01AF59BF4F019070
:103B60000D928A95E1F781E1CF57DF4F8883C158E5
:103B7000D040F5018081CE57DF4F8883C258D040B6
:103B800021819281CD57DF4F2883C358D040CC5735
:103B9000DF4F9883C458D04025813681C556DF4F0A
:103BA00028833983CB59D04027813085C356DF4FD6
:103BB00028833983CD59D040C156DF4F8883CF59F0
:103BC000D040CE018B579F4FC756DF4F88839983D4
:103BD000C959D04044960E945716D50119964D9167
:103BE0005C911A9768E970E0C8010E942E44F801C0
:103BF0002CE5CF01801B910BD50113964D915C9163
:103C00001497DA01A80FB91F8C9182278193EE16C1
:103C1000FF0679F740E250E06CE570E0C7010E94D2
:103C2000396DF5014185528580E2FA01D601019096
:103C30000D928A95E1F760E670E0C8010E942E447B
:103C4000D5011B96ED91FC911C97E05CFF4F8181A3
:103C50008E7F818380E090E016CFEF92FF920F93EA
:103C60001F93CF93DF93CDB7DEB7C056D109CDBF39
:103C7000DEBFDC011D962D913C911E97211531056B
:103C800009F454C053966D917C9154976115710558
:103C900009F44CC04C91433008F044C01F96ED919C
:103CA000FC915097309709F441C04230E9F5DC01AE
:103CB0001C965C91552339F0DC0151966D917C91F5
:103CC0005297672B99F150E2BE016F5F7F4F7B01E6
:103CD000DB0101900D925A95E1F7423009F061C085
:103CE000DC011C965C911C97552309F45AC051962F
:103CF000ED91FC9152974081518149A35AA3428191
:103D000053814BA35CA3F90140854DA340814EA391
:103D100021812FA3FE01B89629E1DF011D922A958A
:103D2000E9F762C0433079F0463060F182EE90E00E
:103D3000C05ADF4FCDBFDEBFDF91CF911F910F91F2
:103D4000FF90EF900895DC015196ED91FC91529710
:103D5000EF2B61F3FC010181128117FDD8C00188AE
:103D6000F289E02D50E2BE016F5F7F4F7B01DB01E6
:103D700001900D925A95E1F755E159A34AA30BA37F
:103D80001CA217C0433031F35CEF540F523008F0DF
:103D9000D5C0FE0131967F0150E2DF011D925A9598
:103DA000E9F755E159A34AA3FC01618152816BA354
:103DB0005CA3F90150855DA350815EA321812FA3EF
:103DC000443009F48BC0453009F474C0FE01B89644
:103DD00029E1DF011D922A95E9F7433029F4FC011E
:103DE0002181328137FD99C0DC0153964D915C9160
:103DF000549720E2FA01DE01AF5BBF4F01900D92B4
:103E00002A95E1F78C0160E670E0C7010E942E441C
:103E1000D8015396ED91FC915497E05CFF4F81815E
:103E2000816081838C918230B1F0D8015396ED91FD
:103E3000FC915497E05CFF4F80818F7D8083539687
:103E4000ED91FC915497E05CFF4F8081807F8083EF
:103E500080E090E06DCF11968D919C9112974097E4
:103E600020F75396ED91FC915497E05CFF4F8081D1
:103E7000806280835396ED91FC915497E05CFF4FF4
:103E800011968C911197982F9F708081807F892B3C
:103E900080831C968C911C978823E1F15396ED91B9
:103EA000FC915497E05CFF4F80818068808380E0C4
:103EB00090E03ECF18A6FC013381248139A72AA7C0
:103EC000358126813BA72CA727812DA7FE01BE9611
:103ED00023E1DF011D922A95E9F786CF18A6DC01C0
:103EE00018965C91189719964C9119971A963C91CF
:103EF0001A971B962C9159A74AA73BA72CA7FE01FE
:103F0000BD9624E1DF011D922A95E9F76DCF50E2BD
:103F1000FB0129CF80E090E00BCF0188F289E02DF2
:103F200020E2DE01AF5BBF4F01900D922A95E1F7D1
:103F3000DC0153964D915C91549764CFDC011F9640
:103F4000ED91FC915097BFCE0F931F93CF93DF93CA
:103F5000CDB7DEB7C056D109CDBFDEBFDC011F969D
:103F60002D913C91509721153105D9F053964D91E3
:103F70005C91549741155105A1F0FA01E05CFF4FA7
:103F8000608167FF11C081818E7F818384EF90E023
:103F9000C05ADF4FCDBFDEBFDF91CF911F910F9190
:103FA000089582EE90E0F4CFDA01AF5BBF4F6C91E1
:103FB00060FFE9CF8C0180E2FA01DE0111960190E9
:103FC0000D928A95E1F782E189A3F80180818AA3A5
:103FD000918182819BA38CA30584F685E02D808549
:103FE0008DA380818EA381818FA3FE01B89689E184
:103FF000DF011D928A95E9F780E2F901DE01AF5BEE
:10400000BF4F01900D928A95E1F760E670E0CE0116
:1040100001960E942E44D8015396ED91FC9154973D
:10402000E05CFF4F8181816081838C918230B1F0AF
:10403000D8015396ED91FC915497E05CFF4F80813D
:104040008F7D80835396ED91FC915497E05CFF4FF8
:104050008081807F808380E090E09ACF11968D915F
:104060009C911297409720F75396ED91FC915497AD
:10407000E05CFF4F8081806280835396ED91FC91DC
:104080005497E05CFF4F11968C91982F9F70808120
:10409000807F892B808380E090E07ACF0F931F93FD
:1040A000CF93DF93CDB7DEB7C056D109CDBFDEBF0A
:1040B000FC016581768161157105D9F043855485D0
:1040C00041155105B1F09A01205C3F4FD9018C9107
:1040D00087FF12C0F90181818E7F818384EF90E098
:1040E000C05ADF4FCDBFDEBFDF91CF911F910F913F
:1040F000089582EE90E0F4CFCA018F5B9F4FDC0100
:104100008C9180FFE7CF20E030E004C065817681AC
:1041100043855485A781B0858D01020F131F620F5F
:10412000731F420F531FDB019C91DA018C91892789
:10413000D8018C932F5F3F4F2032310539F74185ED
:10414000528541155105D1F1CF010384F485E02D4D
:1041500020E2DE01119601900D922A95E1F722E10D
:1041600029A3FC0120812AA3318122813BA32CA316
:104170000380F481E02D20852DA320812EA32181B1
:104180002FA3FE01B89629E1DF011D922A95E9F7D8
:10419000DC011596ED91FC91169780E2DE01AF5B94
:1041A000BF4F01900D928A95E1F760E670E0CE0175
:1041B00001960E942E4480E090E092CF80E090E053
:1041C0008FCF0F931F93CF93DF93CDB7DEB7C05838
:1041D000D109CDBFDEBFFC01658176816115710516
:1041E000D9F04385548541155105B1F09A01205C01
:1041F0003F4FD9018C9187FF12C0F90181818E7FD9
:10420000818384EF90E0C058DF4FCDBFDEBFDF91E8
:10421000CF911F910F91089582EE90E0F4CFCA01E3
:104220008F5B9F4FDC018C9180FFE7CF20E030E077
:1042300004C06581768143855485A781B0858D0151
:10424000020F131F620F731F420F531FDB019C915C
:10425000DA018C918927D8018C932F5F3F4F203250
:10426000310539F78F01AE014F595F4F60E270E0C1
:10427000838594850E942E44AE014F595F4F80E2A2
:1042800090E0FA012191AF01D8011796ED91FC91D0
:104290001897BF01680F791F15960D90BC91A02D3E
:1042A000A80FB91F3C912327FB012083019684327C
:1042B000910539F7D80119964D915C911A974115DE
:1042C0005105C9F11B96ED91FC911C9780E2DE012E
:1042D000119601900D928A95E1F786E489A3F80181
:1042E00080818AA3918182819BA38CA30380F48126
:1042F000E02D80858DA380818EA381818FA3FE0117
:10430000B89685E1DF011D928A95E9F7D8011596E7
:10431000ED91FC91169784E2DE01DD9601900D92FD
:104320008A95E1F760E670E0CE0101960E942E4486
:1043300080E090E068CF80E090E065CFCF92DF92A0
:10434000EF92FF920F931F93CF93DF93CDB7DEB71A
:10435000C056D109CDBFDEBFDC011596CD90DC90F3
:104360001697C114D10489F017964D915C91189756
:104370004115510551F019968D919C911A9700970E
:1043800021F02C91322F3B7F79F082EE90E0C05AE1
:10439000DF4FCDBFDEBFDF91CF911F910F91FF9017
:1043A000EF90DF90CF90089511966D917C911297C8
:1043B0006031710550F78C01005C1F4FF8013081AE
:1043C00037FF0AC0D80111968C9111978E7F1196F4
:1043D0008C9384EF90E0DBCF7C01F1E4EF0EF11CD5
:1043E000F701F080F0FEEECFFF24F39422FBEE24E1
:1043F000E0F8EF24329531703F25E312E3CF8D01D1
:1044000030E2F601DE01119601900D923A95E1F746
:104410003CE139A32AA36BA31CA2D8011396ED910A
:10442000FC91149720852DA320812EA321812FA3F9
:10443000FE01B89629E1DF011D922A95E9F720E2F5
:10444000FC01DE01AF5BBF4F01900D922A95E1F7B1
:1044500060E670E0CE0101960E942E44D8011996C4
:10446000ED91FC911A97E05CFF4F81818E7F8183F3
:1044700080E090E08CCFCF93DF93CDB7DEB7A797E6
:10448000CDBFDEBFDC011596ED91FC9116973097FC
:1044900059F017964D915C9118974115510521F0EF
:1044A0002C91822F8B7F41F082EE90E0A796CDBFBA
:1044B000DEBFDF91CF91089511966D917C91129797
:1044C0006031710588F7CD0130E2DE01119601906F
:1044D0000D923A95E1F73CE139A32AA36BA31CA204
:1044E000DC011396ED91FC91149780858DA380815A
:1044F0008EA381818FA367E270E0CE0101960E94B6
:104500002E4480E090E0D2CFCF93DF93DC012D9159
:104510003C91119721153105A9F012964D915C91AE
:1045200013974115510571F0FA01E05CFF4F80814E
:1045300087FF0DC081818E7F818384EF90E0DF91C2
:10454000CF91089582EE90E0DF91CF910895EA0136
:10455000CF5BDF4F988190FFEDCF8073803251F7B2
:1045600080E090E007C02D913C91119712964D91FB
:104570005C911397F901E80FF91FEA01C80FD91FE1
:10458000308128812327208301968032910559F7B5
:104590001296ED91FC911397E05CFF4F81818E7F25
:1045A000818380E090E0CBCFFA01A901CF010C9488
:1045B0002E44CF92DF92EF92FF920F931F93CF93EF
:1045C000DF93CDB7DEB7C058D109CDBFDEBF0097AE
:1045D000F9F0DC0113966D917C91149761157105CA
:1045E000B9F019962D913C911A972115310581F05A
:1045F0001B96ED90FC901C97E114F10449F0159680
:104600004D915C911697FA013197E835F10578F0F4
:1046100082EE90E0C058DF4FCDBFDEBFDF91CF917B
:104620001F910F91FF90EF90DF90CF900895FE01C2
:1046300031966F01E0E8D6011D92EA95E9F710E2A4
:10464000F701D60101900D921A95E1F7E0E4E9A394
:10465000DC01EC91E4FF45C01796ED91FC911897B1
:104660003097B1F2A081B181AAA3BBA3E281ECA3F0
:104670008C01F90180858DA3808191818EA39FA3F8
:10468000C601841B950B80589F4F0E941E6DA70189
:1046900060E870E0C6010E942E44D8011B96ED919F
:1046A000FC911C97E05CFF4F80818F7D80831B967F
:1046B000ED91FC911C97E05CFF4F808180648083CA
:1046C0001B96ED91FC911C97E05CFF4F11968C912D
:1046D000982F9F708081807F892B808380E090E07D
:1046E00099CFE3FF0AC0EAA3DC011196FC91119770
:1046F0001296EC91FBA3ECA3BBCF80E090E08ACFB5
:10470000CF93DF93DB01109709F44BC0411551059E
:1047100009F447C01D96CD91DC911E97209709F4AE
:1047200040C0C05CDF4FE881EF70F0E03A96EE0FDA
:10473000FF1FE40FF51F2081318113962D933C93C9
:104740001497E881EF70F0E0F096EE0FFF1FE40F92
:10475000F51F2081318115962D933C931697019773
:1047600059F117961C92179718961C921897288142
:104770002F7081E090E002C0880F991F2A95E2F720
:10478000FA01E85AFF4F208131818223932321E0EF
:10479000892B61F419962C9380E090E0DF91CF9102
:1047A000089582EE90E0DF91CF91089520E0199670
:1047B0002C9380E090E0F2CF88818F7090E0883079
:1047C00091057CF6FC017A96EE0FFF1FE40FF51FB2
:1047D000808117968C931797818118968C931897E0
:1047E000C6CFFF920F931F93CF93DF93CDB7DEB762
:1047F000E797CDBFDEBF6115710509F495C0DB01F8
:104800001D962D913C911E972115310509F48CC000
:104810001B964D915C911C974115510509F484C07C
:104820008E010F5F1F4FE7E3D8011D92EA95E9F76C
:10483000E0E2FE2EF901D80101900D92FA94E1F721
:10484000E1E4E9A3DB01EC91EAA31196FC90119756
:104850001296FC911297FBA2FCA31396FC9013975F
:104860001496FC911497FDA2FEA31596FC90159743
:104870001696FC91FFA2F8A7D901A05CBF4F2C911E
:10488000322F3F7029A7019709F46CC0DA011896FE
:104890008C9118978CA78D919C91119789AB9AABAD
:1048A000E6FD4DC0FB01918581E089278DAB8285B6
:1048B0008EABA785B089109731F087E3F80101909E
:1048C0000D928A95E1F7FB01A189B289109701F158
:1048D0008AE0FE01B29601900D928A95E1F7DB0124
:1048E0005196ED91FC9152978DA59EA58287938755
:1048F0008FA598A98487958751960D90BC91A02D7E
:104900001E9685E0FE01F39601900D928A95E1F7DF
:10491000FB01438954894115510591F167E370E02A
:10492000C8010E942E4402C082EE90E0E796CDBFFF
:10493000DEBFDF91CF911F910F91FF9008951496E4
:104940008D919C9115978DA79EA716968D919C9100
:1049500017978FA798AB12968D919C9113978BAB5D
:104960009CABA0CF832F90E008970CF08FCFDB019A
:1049700017968C9117978AA718968C918BA786CF3C
:1049800080E090E0D3CF0F931F936115710520E273
:104990008207910528F082EE90E01F910F91089513
:1049A0008B019C010F71112722273327012B022B2A
:1049B000032B89F74115510571F3FA016083718367
:1049C0008283138280819181848395838281938104
:1049D0008683978380E090E0E0CF0F931F93CF937F
:1049E000DF93CDB7DEB7C056D109CDBFDEBFDC0146
:1049F00015964D915C9116974115510509F47AC0B1
:104A00001B966D917C911C976115710509F472C01C
:104A100020E030E008C015964D915C9116971B96EA
:104A20006D917C911C971796ED91FC9118978F01D1
:104A3000020F131F420F531F620F731FFA01808171
:104A4000FB0190819827F80190832F5F3F4F203220
:104A5000310509F719964D915C911A974115510549
:104A600009F44BC0CD011B96ED91FC911C9720E2FF
:104A7000DE01119601900D922A95E1F722E129A31A
:104A8000DC012C912AA311962C91119712963C913E
:104A900012973BA32CA31396ED91FC9114972085BC
:104AA0002DA320812EA321812FA3FE01B89629E1F9
:104AB000DF011D922A95E9F7DC011596ED91FC9135
:104AC000169780E2DE01AF5BBF4F01900D928A9591
:104AD000E1F760E670E0CE0101960E942E4480E08E
:104AE00090E0C05ADF4FCDBFDEBFDF91CF911F9165
:104AF0000F91089582EE90E0F4CF80E090E0F1CF46
:104B0000CF93DF93CDB7DEB7C056D109CDBFDEBF9F
:104B1000DC01ED91FC911197309709F44BC016968A
:104B20002D913C9117972115310509F443C0189632
:104B30004D915C91199741155105E1F160E2DE015B
:104B4000119601900D926A95E1F765E169A31AA2A9
:104B5000DC0112967C91129713966C9113977BA3AC
:104B60006CA31496ED91FC91159780858DA380819F
:104B70008EA381818FA3FE01B89689E1DF011D928A
:104B80008A95E9F780E2F901DE01AF5BBF4F019042
:104B90000D928A95E1F760E670E0CE0101960E94E1
:104BA0002E4480E090E0C05ADF4FCDBFDEBFDF91E2
:104BB000CF91089582EE90E0C05ADF4FCDBFDEBFA7
:104BC000DF91CF910895803118F082E090E0089550
:104BD00061157105D1F341155105B9F390E09A01C2
:104BE000AB01BC018091594E90915A4E0C949A158C
:104BF000CF92DF92EF92FF920F931F93CF93DF93A9
:104C0000CDB7DEB7C054D109CDBFDEBF6C018B017B
:104C1000FC01608171816230710579F1F601E680F5
:104C2000F780428150E09E012F5F3F4F8091594EA7
:104C300090915A4E0E941D52009791F4F6012481E2
:104C4000358149815A8186819781820F931F481748
:104C5000590708F03FC042175307C8F582E090E0BB
:104C6000C05CDF4FCDBFDEBFDF91CF911F910F91B1
:104C7000FF90EF90DF90CF9008958381882371F2A9
:104C80002481358186819781820F931F813491051C
:104C900028F7628170E0AE014F5F5F4F8091594EFF
:104CA00090915A4E0E944D100097D1F6F601648102
:104CB000758181E090E08C0F9D1F680F791F468100
:104CC0005781C8010E941E6D80E090E0C9CF7A0133
:104CD000E21AF30AF601428150E060818091594E58
:104CE00090915A4E0E949713009709F0B9CF80E037
:104CF00090E0B6CF2F923F924F925F926F927F9249
:104D00008F929F92AF92BF92CF92EF92FF920F93AA
:104D10001F93CF93DF93CDB7DEB7C858D109CDBF6E
:104D2000DEBFCF57DF4F18821982C158D04000979D
:104D300009F4B5C06115710509F4B1C0C957DF4F59
:104D400048835983C758D040CB57DF4F6883798356
:104D5000C558D040CD57DF4F88839983C358D04082
:104D600000E210E020E130E0AE014F575F4FBE019E
:104D70006F5F7F4F0E94252E009709F092C0CF579A
:104D8000DF4F88819981C158D040892B09F484C0B4
:104D9000CE0101964C01212C312CF40180819181AE
:104DA000009709F469C0029721F4F401838181110D
:104DB00063C00BE51EE49401C957DF4F4881598158
:104DC000C758D040CB57DF4F68817981C558D04054
:104DD000CD57DF4F88819981C358D0400E94B737A3
:104DE000009709F05EC0F401248135815901B69421
:104DF000A794B294A2944FE0A422AB24B422AB2493
:104E000086819781280F391FC90101972C0197FDD1
:104E10006CC0559447945594479455944794559431
:104E20004794559447949C012F71307837FD56C0B4
:104E3000232B09F04CC04A145B04F4F09BE5692E67
:104E40009EE4792EF401428150E080E2C82E730185
:104E500000E02A2D60818091594E90915A4E0E9417
:104E600015590097F1F4FFEFAF1ABF0A40E2640E44
:104E7000711C4A145B0434F7FFEF2F1A3F0A48E015
:104E8000840E911CCF57DF4F88819981C158D04043
:104E90002816390608F481CF80E090E002C082E055
:104EA00090E0C857DF4FCDBFDEBFDF91CF911F919C
:104EB0000F91FF90EF90CF90BF90AF909F908F9009
:104EC0007F906F905F904F903F902F900895892F23
:104ED000881F8827881F481A5108ADCF21503109F3
:104EE000206E3F6F2F5F3F4FA3CF2901FEE14F0E92
:104EF000511C8FCF2F923F924F925F926F927F9271
:104F00008F929F92AF92BF92CF92DF92EF92FF92D9
:104F10000F931F93CF93DF93CDB7DEB7C35AD10959
:104F2000CDBFDEBF6C014B015A0180E48E010F5BE7
:104F30001F4FF801282F11922A95E9F7FE013196AB
:104F40002F0111928A95E9F73E01F1E86F0E711C6D
:104F500080E2F30111928A95E9F7C114D10409F4B2
:104F6000B4C0672B09F4B1C0452B09F4AEC076017B
:104F7000FBE4EF0EF11CF70140815181F5018081C6
:104F800091818417950708F473C0F601E75BFF4F22
:104F900060817181C4010E941E6DF5010190F08154
:104FA000E02DCE55DF4FE883F983C25AD040F70198
:104FB00080819181F501808391831601F6E22F0EA5
:104FC000311CF601608D70E0F481CF55DF4FF8831E
:104FD000C15AD040F601818DA801882309F466C02A
:104FE0008091594E90915A4E0E944D107C01892B10
:104FF00009F066C0F5012081318180E4E82EF12CB2
:10500000A401B101C6010E945E348C01892B61F5B7
:10501000F501408151819301B401C6010E9404341D
:105020008C01892B09F5CF55DF4FF881C15AD0404B
:105030006F2F70E09201A3018091594E90915A4ECA
:105040000E949A158C01892B79F48201CE55DF4F8D
:1050500028813981C25AD040A501B401C6010E94FD
:105060000A308C01892B51F0C8010E94A14F06C063
:1050700083E090E00E94A14F03E010E0C801CD550D
:10508000DF4FCDBFDEBFDF91CF911F910F91FF901A
:10509000EF90DF90CF90BF90AF909F908F907F90D8
:1050A0006F905F904F903F902F9008958091594E50
:1050B00090915A4E0E940C137C01892B09F49ACFCF
:1050C000C7010E94A14F8701D9CF82E090E00E94E2
:1050D000A14F02E010E0D2CF8F929F92AF92BF9289
:1050E000CF92DF92EF92FF920F931F93CF93DF93B4
:1050F00000D0CDB7DEB7009761F16115710549F1B8
:105100004115510531F18A017B01FA01C080D1803E
:1051100010821182C982DA82AE014F5F5F4F0E9416
:105120007A270097C1F489809A805601A818B90897
:10513000AE0CBF1CA401B701C5010E94276DF80188
:10514000C082D1829801A701B401C5010E94D0425A
:1051500002C082E090E00F900F90DF91CF911F91FD
:105160000F91FF90EF90DF90CF90BF90AF909F9006
:105170008F9008958F929F92AF92BF92CF92DF92BD
:10518000EF92FF920F931F93CF93DF93CDB7DEB7CC
:10519000C854D109CDBFDEBF0097E1F0611571059C
:1051A000C9F0FC012689378922303105B1F084E04D
:1051B00090E0C85BDF4FCDBFDEBFDF91CF911F9185
:1051C0000F91FF90EF90DF90CF90BF90AF909F90A6
:1051D0008F90089582E090E0ECCF5B016C01818DAF
:1051E00081111EC0E48CF58C228D338D408D50E0F2
:1051F000CE0101964C018C0162E08091594E909154
:105200005A4E0E9497130097A1F6F601848D958D52
:1052100088349105A9F0B501C4010E948437C9CF33
:10522000608D70E0CE0101964C01AC018091594E29
:1052300090915A4E0E944D10009709F0BACFEBCFD3
:10524000B401C4010E94A139E6CFEF92FF920F93FF
:105250001F93CF93DF93CDB7DEB7CD54D109CDBF28
:10526000DEBF2BE430E02E962EAF3FAF2E97009797
:1052700071F16115710559F17B018C01FC0160A18F
:1052800070E0AE01475F5F4F8091594E90915A4E4A
:105290000E94B8120097E9F4AE01445B5F4FBE0173
:1052A0006F5F7F4FCE0109960E945C3F009789F4A3
:1052B000F80122A533A52E968EAD9FAD2E97820FB5
:1052C000931FF7018083918380E090E002C082E029
:1052D00090E0C35BDF4FCDBFDEBFDF91CF911F9169
:1052E0000F91FF90EF9008958F929F92AF92BF928F
:1052F000CF92DF92EF92FF920F931F93CF93DF93A2
:10530000CDB7DEB7C459D109CDBFDEBFCD56DF4F13
:1053100018821982C359D040009741F121153105F7
:1053200029F159016A014B017C01452B11F100E281
:1053300010E020E130E0AE014D565F4FBE016F5FDF
:105340007F4F0E94252E0097C1F0CC56DF4FCDBF76
:10535000DEBFDF91CF911F910F91FF90EF90DF9013
:10536000CF90BF90AF909F908F90089582E090E093
:10537000ECCFB9010E942529E8CF84019501A6014F
:10538000B701CE018F579F4F0E94E62E0097E9F696
:10539000CD56DF4F88819981C359D040892B29F19F
:1053A0008E010F5F1F4FE12CF12C6BEF7FE4C801E2
:1053B0000E94F825009749F64BEF5FE4B801CE0153
:1053C0008F579F4F0E94BC39009709F0BECF8FEFD7
:1053D000E81AF80A085F1F4FCD56DF4F8881998180
:1053E000C359D040E816F90600F3CE018F579F4FFE
:1053F0000E94CE35AACF0F931F93CF93DF93FC016A
:10540000DB016681778116960D911C911797C081FB
:10541000D181C730D105B1F16115710599F18D9137
:105420009C9111978730910569F10115110551F192
:10543000C817D90739F52481358114968D919C912F
:1054400015972297A1F028173907E0F0620F731F14
:10545000080F191F06171707A8F0281B390BCA01D8
:10546000820F931FDF91CF911F910F910895D281E9
:105470001296CC911297DC1305C0F3811396EC9130
:10548000FE1709F380E090E0DF91CF911F910F911B
:105490000895DC01FB0110829C9120ED290F2A3038
:1054A000A0F42295207F208311968C9190ED980F87
:1054B0009A30C8F09FEB980F963020F19FE9980F33
:1054C000963038F184E090E008958FEB890F8630B4
:1054D00080F497539295907F908311968C9190EDE4
:1054E000980F9A3038F78081980F908380E090E091
:1054F00008958FE9890F863028F797559295907F08
:105500009083D2CF87539081890F808380E090E091
:10551000089587559081890F808380E090E00895F9
:10552000DC01DA96ED91FC91DB97E417F50790F436
:10553000DB01AE0FBF1F2C9130E0DC01A75BBF4F3A
:105540008D919C91E80FF91F8081A901481B510999
:10555000CA01089580E090E008954F925F926F92A3
:105560007F928F929F92AF92BF92CF92DF92EF92F3
:10557000FF920F931F93CF93DF936C017B015A012E
:10558000F901C081D181C730D10509F465C02681F8
:1055900037812115310509F45FC084809580C401ED
:1055A000B8010E943D6B609F2001619F500C709F6D
:1055B000500C1124C901880D991DB8010E943D6B42
:1055C000892B11F06F5F7F4F069F3001079F700C92
:1055D000169F700C1124D7012D913C912115310596
:1055E00009F460C0D60180E090E006C001961896EC
:1055F0008217930709F456C04D915C911197C41717
:10560000D507A1F7C230D105D1F114964D915C9127
:1056100015976416750650F316966D917C91179741
:10562000640F751F6415750508F38416950628F434
:1056300014968D929C921597A40166157705C0F17A
:10564000641B750B16966D937C931797D7012D915C
:105650003C918217930731F180E090E0DF91CF9188
:105660001F910F91FF90EF90DF90CF90BF90AF9080
:105670009F908F907F906F905F904F900895528190
:1056800012964C9112975413B1CF538113964C91AB
:105690001397541709F4B9CF0196189682179307F8
:1056A00009F0AACF2A153B0570F083E090E0D6CF31
:1056B0009301241B350B16962D933C931797D70116
:1056C0002D913C91C6CFD901AA0FBB1FAA0FBB1FBA
:1056D000AA0FBB1FAC0DBD1D88E001900D928A95ED
:1056E000E1F7D701ED91FC911197EE0FFF1FEE0F3F
:1056F000FF1FEE0FFF1FEC0DFD1D44825582ED9143
:10570000FC911197EE0FFF1FEE0FFF1FEE0FFF1F13
:10571000EC0DFD1D64187508668277828D919C9151
:10572000119701968D939C9397CF8F929F92AF92F2
:10573000BF92CF92DF92EF92FF920F931F93CF937E
:10574000DF93DB011296ED91FC9113973097B9F03E
:105750000115110561F149016A01DC018D919C91EE
:105760001197892BD9F415968D919C9116970797CF
:1057700009F1EE15FF05E1F187E090E002C080E05D
:1057800090E0DF91CF911F910F91FF90EF90DF900C
:10579000CF90BF90AF909F908F900895EE15FF052A
:1057A00059F7FB01A080B18080E090E016C082E054
:1057B00090E0E7CFDA96AD90BC90DB97EB01888163
:1057C00099818A159B0521F0EE15FF05A9F65C016C
:1057D000A501B601CD010E94902AA80EB91EC701ED
:1057E0008A0D9B1D8816990648F489E090E0C9CF80
:1057F000DB01AD90BC9080E090E0EFCFA701B80155
:10580000C6018A0D9B1D0E941E6D80E090E0B9CFFD
:10581000EF92FF920F931F93CF93DF9300D000D0AE
:10582000CDB7DEB7FC01D9019C91892F82958F708D
:105830008A30A8F5805D89839F709A30A8F5905DC5
:105840009A83D90111969C91392F32953F703A3045
:10585000B8F5305D3B839F709A3048F5905D9C832E
:10586000DF01D696309749F1109739F1611571052E
:1058700021F19A01AB01CF0164E0E62EF12C8E01FB
:105880000F5F1F4FBD010E94952B2496CDBFDEBF39
:10589000DF91CF911F910F91FF90EF900895895C58
:1058A00089839F709A3058F2995C9A83CACF995C29
:1058B0009C83DF01D6963097B9F682E090E0E5CF81
:1058C000395C3B83C8CFAF92BF92CF92DF92EF9209
:1058D000FF920F931F93CF93DF93FB01C281D3817C
:1058E000209769F488E090E0DF91CF911F910F91AC
:1058F000FF90EF90DF90CF90BF90AF900895CE15BE
:10590000DF0519F087E090E0EFCF79016A01DB0154
:10591000FC01AD90BC9020813181232B69F080E0A7
:1059200090E09E012A0D3B1D280F391FE216F30659
:1059300068F489E090E0D8CF2581368127303105A1
:1059400071F7A501B6010E94902AEBCF8A0D9B1D2D
:10595000B601680F791FAE01C8010E941E6D80E07C
:1059600090E0C2CF8F929F92AF92BF92CF92DF9280
:10597000EF92FF920F931F93CF93DF93CDB7DEB7D4
:105980006497CDBFDEBFDC011F96EC91E53048F592
:10599000F0E0EE0FFF1FE15EF64BC080D180B5E175
:1059A000CB16D104F0F4FC01BE96009761F130975C
:1059B00051F16115710539F159019A01AB014C01A1
:1059C00076018E010F5F1F4FBF010E94632C00976D
:1059D00051F49501A601B801F40187850E94EE6398
:1059E00002C081E090E06496CDBFDEBFDF91CF9131
:1059F0001F910F91FF90EF90DF90CF90BF90AF90ED
:105A00009F908F90089582E090E0EDCFCF92DF924B
:105A1000EF92FF920F931F93CF93DF9300D000D0AC
:105A2000CDB7DEB7FC01F696009729F1309719F152
:105A30006115710501F169019A01AB0164E0E62E7F
:105A4000F12C8E010F5F1F4FBF010E94632C009746
:105A500031F4B601C8010E94492A009779F02496D2
:105A6000CDBFDEBFDF91CF911F910F91FF90EF90DF
:105A7000DF90CF90089582E090E0F1CFB6016F5FA4
:105A80007F4FCE0103960E94492AE9CFCF93DF933F
:105A9000CDB7DEB7C154D109CDBFDEBFFC01AB012C
:105AA00084E0898390E4DE01129601900D929A952C
:105AB000E1F761E470E0CE0101960E943543CF5BCF
:105AC000DF4FCDBFDEBFDF91CF9108958F929F92C0
:105AD000AF92BF92CF92DF92EF92FF920F931F93FC
